{
  "contractName": "CrappToken",
  "abi": [
    {
      "inputs": [],
      "payable": false,
      "stateMutability": "nonpayable",
      "type": "constructor"
    },
    {
      "constant": true,
      "inputs": [],
      "name": "totalSupply",
      "outputs": [
        {
          "internalType": "uint256",
          "name": "",
          "type": "uint256"
        }
      ],
      "payable": false,
      "stateMutability": "view",
      "type": "function"
    }
  ],
  "bytecode": "0x6080604052348015600f57600080fd5b50620f42406000819055506084806100286000396000f3fe6080604052348015600f57600080fd5b506004361060285760003560e01c806318160ddd14602d575b600080fd5b60336049565b6040518082815260200191505060405180910390f35b6000548156fea265627a7a723158203bae9f8100220a072d1b69899c1bb17c873feb42980b539fd5c2beb645b0c66164736f6c634300050c0032",
  "source": "pragma solidity >=0.4.21 <0.6.0;\n\ncontract CrappToken{\n    uint256 public totalSupply;\n\n    //constructor\n    constructor() public {\n        totalSupply = 1000000;\n    }\n}",
  "sourcePath": "/home/risto/Ethereum/token_sale/contracts/CrappToken.sol",
  "compiler": {
    "name": "solc",
    "version": "0.5.12+commit.7709ece9.Emscripten.clang"
  },
  "schemaVersion": "3.0.19",
  "updatedAt": "2019-11-13T06:27:46.167Z",
  "networkType": "ethereum",
  "devdoc": {
    "methods": {}
  },
  "userdoc": {
    "methods": {}
  }
}