{
  "contractName": "Inventory",
  "abi": [
    {
      "constant": true,
      "inputs": [
        {
          "name": "",
          "type": "uint256"
        }
      ],
      "name": "itemList",
      "outputs": [
        {
          "name": "name",
          "type": "string"
        },
        {
          "name": "picUrl",
          "type": "string"
        },
        {
          "name": "id",
          "type": "uint256"
        },
        {
          "name": "color",
          "type": "uint256"
        },
        {
          "name": "price",
          "type": "uint256"
        }
      ],
      "payable": false,
      "stateMutability": "view",
      "type": "function"
    },
    {
      "constant": true,
      "inputs": [
        {
          "name": "",
          "type": "uint256"
        }
      ],
      "name": "itemOwners",
      "outputs": [
        {
          "name": "",
          "type": "address"
        }
      ],
      "payable": false,
      "stateMutability": "view",
      "type": "function"
    },
    {
      "constant": true,
      "inputs": [],
      "name": "staticUrl",
      "outputs": [
        {
          "name": "",
          "type": "string"
        }
      ],
      "payable": false,
      "stateMutability": "view",
      "type": "function"
    },
    {
      "inputs": [],
      "payable": false,
      "stateMutability": "nonpayable",
      "type": "constructor"
    },
    {
      "anonymous": false,
      "inputs": [
        {
          "indexed": false,
          "name": "id",
          "type": "uint256"
        },
        {
          "indexed": false,
          "name": "name",
          "type": "string"
        },
        {
          "indexed": false,
          "name": "price",
          "type": "uint256"
        }
      ],
      "name": "NewItem",
      "type": "event"
    },
    {
      "constant": true,
      "inputs": [],
      "name": "getItemCount",
      "outputs": [
        {
          "name": "",
          "type": "uint256"
        }
      ],
      "payable": false,
      "stateMutability": "view",
      "type": "function"
    },
    {
      "constant": true,
      "inputs": [],
      "name": "getItemOwners",
      "outputs": [
        {
          "name": "",
          "type": "address[16]"
        }
      ],
      "payable": false,
      "stateMutability": "view",
      "type": "function"
    },
    {
      "constant": false,
      "inputs": [
        {
          "name": "_id",
          "type": "uint256"
        }
      ],
      "name": "buyItem",
      "outputs": [
        {
          "name": "",
          "type": "uint256"
        }
      ],
      "payable": true,
      "stateMutability": "payable",
      "type": "function"
    }
  ],
  "bytecode": "0x60806040526040518060400160405280601481526020017f68747470733a2f2f692e696d6775722e636f6d2f0000000000000000000000008152506010908051906020019061004f92919061043f565b50600060125534801561006157600080fd5b50600160116040518060a001604052806040518060400160405280600e81526020017f4d6f746f726f6c6c65722030353000000000000000000000000000000000000081525081526020016040518060400160405280600b81526020017f486978485739542e706e67000000000000000000000000000000000000000000815250815260200160008152602001600281526020016706f05b59d3b200008152509080600181540180825580915050906001820390600052602060002090600502016000909192909190915060008201518160000190805190602001906101489291906104bf565b5060208201518160010190805190602001906101659291906104bf565b5060408201518160020155606082015181600301556080820151816004015550505050600160116040518060a001604052806040518060400160405280600c81526020017f536f6d65736f6e6720533233000000000000000000000000000000000000000081525081526020016040518060400160405280600b81526020017f5054634548756f2e706e6700000000000000000000000000000000000000000081525081526020016001815260200160008152602001670de0b6b3a764000081525090806001815401808255809150509060018203906000526020600020906005020160009091929091909150600082015181600001908051906020019061026e9291906104bf565b50602082015181600101908051906020019061028b9291906104bf565b5060408201518160020155606082015181600301556080820151816004015550505050600160116040518060a001604052806040518060400160405280600981526020017f4e6f47696120327361000000000000000000000000000000000000000000000081525081526020016040518060400160405280600b81526020017f594f56484a66542e706e67000000000000000000000000000000000000000000815250815260200160028152602001600181526020016709b6e64a8ec600008152509080600181540180825580915050906001820390600052602060002090600502016000909192909190915060008201518160000190805190602001906103949291906104bf565b5060208201518160010190805190602001906103b19291906104bf565b50604082015181600201556060820151816003015560808201518160040155505003601281905550731777450459b864d05e31782b51129da4721e579c600080601081106103fb57fe5b0160006101000a81548173ffffffffffffffffffffffffffffffffffffffff021916908373ffffffffffffffffffffffffffffffffffffffff160217905550610564565b828054600181600116156101000203166002900490600052602060002090601f016020900481019282601f1061048057805160ff19168380011785556104ae565b828001600101855582156104ae579182015b828111156104ad578251825591602001919060010190610492565b5b5090506104bb919061053f565b5090565b828054600181600116156101000203166002900490600052602060002090601f016020900481019282601f1061050057805160ff191683800117855561052e565b8280016001018555821561052e579182015b8281111561052d578251825591602001919060010190610512565b5b50905061053b919061053f565b5090565b61056191905b8082111561055d576000816000905550600101610545565b5090565b90565b610716806105736000396000f3fe6080604052600436106100555760003560e01c80633d4d36001461005a5780634a2e30bb1461018f5780634eb4f2011461020a5780637749cf231461029a578063c90f981d146102c5578063e7fb74c714610318575b600080fd5b34801561006657600080fd5b506100936004803603602081101561007d57600080fd5b810190808035906020019092919050505061035a565b604051808060200180602001868152602001858152602001848152602001838103835288818151815260200191508051906020019080838360005b838110156100e95780820151818401526020810190506100ce565b50505050905090810190601f1680156101165780820380516001836020036101000a031916815260200191505b50838103825287818151815260200191508051906020019080838360005b8381101561014f578082015181840152602081019050610134565b50505050905090810190601f16801561017c5780820380516001836020036101000a031916815260200191505b5097505050505050505060405180910390f35b34801561019b57600080fd5b506101c8600480360360208110156101b257600080fd5b81019080803590602001909291905050506104cd565b604051808273ffffffffffffffffffffffffffffffffffffffff1673ffffffffffffffffffffffffffffffffffffffff16815260200191505060405180910390f35b34801561021657600080fd5b5061021f610500565b6040518080602001828103825283818151815260200191508051906020019080838360005b8381101561025f578082015181840152602081019050610244565b50505050905090810190601f16801561028c5780820380516001836020036101000a031916815260200191505b509250505060405180910390f35b3480156102a657600080fd5b506102af61059e565b6040518082815260200191505060405180910390f35b3480156102d157600080fd5b506102da6105ab565b6040518082601060200280838360005b838110156103055780820151818401526020810190506102ea565b5050505090500191505060405180910390f35b6103446004803603602081101561032e57600080fd5b810190808035906020019092919050505061062c565b6040518082815260200191505060405180910390f35b6011818154811061036757fe5b9060005260206000209060050201600091509050806000018054600181600116156101000203166002900480601f0160208091040260200160405190810160405280929190818152602001828054600181600116156101000203166002900480156104135780601f106103e857610100808354040283529160200191610413565b820191906000526020600020905b8154815290600101906020018083116103f657829003601f168201915b505050505090806001018054600181600116156101000203166002900480601f0160208091040260200160405190810160405280929190818152602001828054600181600116156101000203166002900480156104b15780601f10610486576101008083540402835291602001916104b1565b820191906000526020600020905b81548152906001019060200180831161049457829003601f168201915b5050505050908060020154908060030154908060040154905085565b600081601081106104da57fe5b016000915054906101000a900473ffffffffffffffffffffffffffffffffffffffff1681565b60108054600181600116156101000203166002900480601f0160208091040260200160405190810160405280929190818152602001828054600181600116156101000203166002900480156105965780601f1061056b57610100808354040283529160200191610596565b820191906000526020600020905b81548152906001019060200180831161057957829003601f168201915b505050505081565b6000601180549050905090565b6105b36106c7565b6000601080602002604051908101604052809291908260108015610622576020028201915b8160009054906101000a900473ffffffffffffffffffffffffffffffffffffffff1673ffffffffffffffffffffffffffffffffffffffff16815260200190600101908083116105d8575b5050505050905090565b600080821015801561063f5750600f8211155b61064857600080fd5b6011828154811061065557fe5b906000526020600020906005020160040154341461067257600080fd5b336000836010811061068057fe5b0160006101000a81548173ffffffffffffffffffffffffffffffffffffffff021916908373ffffffffffffffffffffffffffffffffffffffff160217905550819050919050565b60405180610200016040528060109060208202803883398082019150509050509056fea165627a7a723058204e103893b72b63e0004e12e34774a3d1ce29e59ef9ed8095a6e6333ff609de4c0029",
  "source": "pragma solidity ^0.5.0;\r\n\r\ncontract Inventory {\r\n\r\n    address[16] public itemOwners;\r\n    string public staticUrl = 'https://i.imgur.com/';\r\n\r\n    struct ShopItem{\r\n        string name;\r\n        string picUrl;\r\n        uint id;\r\n        uint color;\r\n        uint price;\r\n    }\r\n\r\n    ShopItem[] public itemList;\r\n\r\n    uint lastItemId = 0;\r\n    \r\n    event NewItem(uint id, string name, uint price);\r\n\r\n    constructor() public // create some sample products\r\n    {\r\n        itemList.push(ShopItem('Motoroller 050','HixHW9T.png',0,2,500 finney)) - 1;\r\n        itemList.push(ShopItem('Somesong S23','PTcEHuo.png',1,0,1000 finney)) - 1;\r\n        lastItemId = itemList.push(ShopItem('NoGia 2sa','YOVHJfT.png',2,1,700 finney)) - 1;\r\n        itemOwners[0]=0x1777450459b864D05e31782b51129da4721e579C;\r\n    }\r\n\r\n    function getItemCount() external view returns(uint){\r\n        return itemList.length;\r\n    }\r\n\r\n    function getItemOwners() public view returns (address[16] memory) {\r\n        return itemOwners;\r\n    }\r\n\r\n    function buyItem(uint _id) external payable returns(uint){\r\n        require(_id >= 0 && _id <= 15);\r\n        require(msg.value == itemList[_id].price);\r\n        itemOwners[_id] = msg.sender;\r\n        return _id;\r\n    }\r\n\r\n}",
  "sourcePath": "C:/projects/Ethereum/webshop/contracts/Inventory.sol",
  "compiler": {
    "name": "solc",
    "version": "0.5.8+commit.23d335f2.Emscripten.clang"
  },
  "schemaVersion": "3.0.16",
  "updatedAt": "2019-10-15T04:40:46.070Z",
  "devdoc": {
    "methods": {}
  },
  "userdoc": {
    "methods": {}
  }
}