{
  "contractName": "Inventory",
  "abi": [
    {
      "constant": true,
      "inputs": [
        {
          "name": "",
          "type": "uint256"
        }
      ],
      "name": "itemList",
      "outputs": [
        {
          "name": "name",
          "type": "string"
        },
        {
          "name": "picUrl",
          "type": "string"
        },
        {
          "name": "id",
          "type": "uint256"
        },
        {
          "name": "color",
          "type": "uint256"
        },
        {
          "name": "price",
          "type": "uint256"
        }
      ],
      "payable": false,
      "stateMutability": "view",
      "type": "function"
    },
    {
      "constant": true,
      "inputs": [],
      "name": "lastItemId",
      "outputs": [
        {
          "name": "",
          "type": "uint256"
        }
      ],
      "payable": false,
      "stateMutability": "view",
      "type": "function"
    },
    {
      "constant": true,
      "inputs": [
        {
          "name": "",
          "type": "uint256"
        }
      ],
      "name": "itemOwners",
      "outputs": [
        {
          "name": "",
          "type": "address"
        }
      ],
      "payable": false,
      "stateMutability": "view",
      "type": "function"
    },
    {
      "constant": true,
      "inputs": [],
      "name": "staticUrl",
      "outputs": [
        {
          "name": "",
          "type": "string"
        }
      ],
      "payable": false,
      "stateMutability": "view",
      "type": "function"
    },
    {
      "constant": false,
      "inputs": [],
      "name": "renounceOwnership",
      "outputs": [],
      "payable": false,
      "stateMutability": "nonpayable",
      "type": "function"
    },
    {
      "constant": true,
      "inputs": [],
      "name": "owner",
      "outputs": [
        {
          "name": "",
          "type": "address"
        }
      ],
      "payable": false,
      "stateMutability": "view",
      "type": "function"
    },
    {
      "constant": true,
      "inputs": [],
      "name": "isOwner",
      "outputs": [
        {
          "name": "",
          "type": "bool"
        }
      ],
      "payable": false,
      "stateMutability": "view",
      "type": "function"
    },
    {
      "constant": false,
      "inputs": [
        {
          "name": "newOwner",
          "type": "address"
        }
      ],
      "name": "transferOwnership",
      "outputs": [],
      "payable": false,
      "stateMutability": "nonpayable",
      "type": "function"
    },
    {
      "inputs": [],
      "payable": false,
      "stateMutability": "nonpayable",
      "type": "constructor"
    },
    {
      "anonymous": false,
      "inputs": [
        {
          "indexed": false,
          "name": "id",
          "type": "uint256"
        },
        {
          "indexed": false,
          "name": "name",
          "type": "string"
        },
        {
          "indexed": false,
          "name": "price",
          "type": "uint256"
        }
      ],
      "name": "NewItem",
      "type": "event"
    },
    {
      "anonymous": false,
      "inputs": [
        {
          "indexed": true,
          "name": "previousOwner",
          "type": "address"
        },
        {
          "indexed": true,
          "name": "newOwner",
          "type": "address"
        }
      ],
      "name": "OwnershipTransferred",
      "type": "event"
    },
    {
      "constant": true,
      "inputs": [],
      "name": "getItemCount",
      "outputs": [
        {
          "name": "",
          "type": "uint256"
        }
      ],
      "payable": false,
      "stateMutability": "view",
      "type": "function"
    },
    {
      "constant": true,
      "inputs": [],
      "name": "getItemOwners",
      "outputs": [
        {
          "name": "",
          "type": "address[16]"
        }
      ],
      "payable": false,
      "stateMutability": "view",
      "type": "function"
    },
    {
      "constant": false,
      "inputs": [
        {
          "name": "name",
          "type": "string"
        },
        {
          "name": "imgFile",
          "type": "string"
        },
        {
          "name": "color",
          "type": "uint256"
        },
        {
          "name": "price",
          "type": "uint256"
        }
      ],
      "name": "addNewItem",
      "outputs": [],
      "payable": false,
      "stateMutability": "nonpayable",
      "type": "function"
    },
    {
      "constant": false,
      "inputs": [
        {
          "name": "_id",
          "type": "uint256"
        }
      ],
      "name": "buyItem",
      "outputs": [
        {
          "name": "",
          "type": "uint256"
        }
      ],
      "payable": true,
      "stateMutability": "payable",
      "type": "function"
    }
  ],
  "bytecode": "0x60806040526040518060400160405280601481526020017f68747470733a2f2f692e696d6775722e636f6d2f000000000000000000000000815250601190805190602001906200005192919062000268565b5060006013553480156200006457600080fd5b50620000756200026060201b60201c565b6000806101000a81548173ffffffffffffffffffffffffffffffffffffffff021916908373ffffffffffffffffffffffffffffffffffffffff1602179055506000809054906101000a900473ffffffffffffffffffffffffffffffffffffffff1673ffffffffffffffffffffffffffffffffffffffff16600073ffffffffffffffffffffffffffffffffffffffff167f8be0079c531659141344cd1fd0a4f28419497f9722a3daafe3b4186f6b6457e060405160405180910390a3600160126040518060a001604052806040518060400160405280600f81526020017f4d6f746f726f6c6120746573742031000000000000000000000000000000000081525081526020016040518060400160405280600b81526020017f486978485739542e706e67000000000000000000000000000000000000000000815250815260200160008152602001600281526020016706f05b59d3b2000081525090806001815401808255809150509060018203906000526020600020906005020160009091929091909150600082015181600001908051906020019062000218929190620002ef565b50602082015181600101908051906020019062000237929190620002ef565b50604082015181600201556060820151816003015560808201518160040155505050506200039e565b600033905090565b828054600181600116156101000203166002900490600052602060002090601f016020900481019282601f10620002ab57805160ff1916838001178555620002dc565b82800160010185558215620002dc579182015b82811115620002db578251825591602001919060010190620002be565b5b509050620002eb919062000376565b5090565b828054600181600116156101000203166002900490600052602060002090601f016020900481019282601f106200033257805160ff191683800117855562000363565b8280016001018555821562000363579182015b828111156200036257825182559160200191906001019062000345565b5b50905062000372919062000376565b5090565b6200039b91905b80821115620003975760008160009055506001016200037d565b5090565b90565b61100e80620003ae6000396000f3fe6080604052600436106100a75760003560e01c80637749cf23116100645780637749cf231461041d5780638da5cb5b146104485780638f32d59b1461049f578063c90f981d146104ce578063e7fb74c714610521578063f2fde38b14610563576100a7565b8063044c2cff146100ac5780633d4d36001461019b5780633fd04d20146102d05780634a2e30bb146102fb5780634eb4f20114610376578063715018a614610406575b600080fd5b3480156100b857600080fd5b50610199600480360360808110156100cf57600080fd5b81019080803590602001906401000000008111156100ec57600080fd5b8201836020820111156100fe57600080fd5b8035906020019184600183028401116401000000008311171561012057600080fd5b90919293919293908035906020019064010000000081111561014157600080fd5b82018360208201111561015357600080fd5b8035906020019184600183028401116401000000008311171561017557600080fd5b909192939192939080359060200190929190803590602001909291905050506105b4565b005b3480156101a757600080fd5b506101d4600480360360208110156101be57600080fd5b81019080803590602001909291905050506107ef565b604051808060200180602001868152602001858152602001848152602001838103835288818151815260200191508051906020019080838360005b8381101561022a57808201518184015260208101905061020f565b50505050905090810190601f1680156102575780820380516001836020036101000a031916815260200191505b50838103825287818151815260200191508051906020019080838360005b83811015610290578082015181840152602081019050610275565b50505050905090810190601f1680156102bd5780820380516001836020036101000a031916815260200191505b5097505050505050505060405180910390f35b3480156102dc57600080fd5b506102e5610962565b6040518082815260200191505060405180910390f35b34801561030757600080fd5b506103346004803603602081101561031e57600080fd5b8101908080359060200190929190505050610968565b604051808273ffffffffffffffffffffffffffffffffffffffff1673ffffffffffffffffffffffffffffffffffffffff16815260200191505060405180910390f35b34801561038257600080fd5b5061038b61099b565b6040518080602001828103825283818151815260200191508051906020019080838360005b838110156103cb5780820151818401526020810190506103b0565b50505050905090810190601f1680156103f85780820380516001836020036101000a031916815260200191505b509250505060405180910390f35b34801561041257600080fd5b5061041b610a39565b005b34801561042957600080fd5b50610432610b72565b6040518082815260200191505060405180910390f35b34801561045457600080fd5b5061045d610b7f565b604051808273ffffffffffffffffffffffffffffffffffffffff1673ffffffffffffffffffffffffffffffffffffffff16815260200191505060405180910390f35b3480156104ab57600080fd5b506104b4610ba8565b604051808215151515815260200191505060405180910390f35b3480156104da57600080fd5b506104e3610c06565b6040518082601060200280838360005b8381101561050e5780820151818401526020810190506104f3565b5050505090500191505060405180910390f35b61054d6004803603602081101561053757600080fd5b8101908080359060200190929190505050610c87565b6040518082815260200191505060405180910390f35b34801561056f57600080fd5b506105b26004803603602081101561058657600080fd5b81019080803573ffffffffffffffffffffffffffffffffffffffff169060200190929190505050610d22565b005b6105bc610ba8565b61062e576040517f08c379a00000000000000000000000000000000000000000000000000000000081526004018080602001828103825260208152602001807f4f776e61626c653a2063616c6c6572206973206e6f7420746865206f776e657281525060200191505060405180910390fd5b600160126040518060a0016040528089898080601f016020809104026020016040519081016040528093929190818152602001838380828437600081840152601f19601f82011690508083019250505050505050815260200187878080601f016020809104026020016040519081016040528093929190818152602001838380828437600081840152601f19601f82011690508083019250505050505050815260200160016013540181526020018581526020018481525090806001815401808255809150509060018203906000526020600020906005020160009091929091909150600082015181600001908051906020019061072d929190610ef4565b50602082015181600101908051906020019061074a929190610ef4565b506040820151816002015560608201518160030155608082015181600401555050036013819055507f9a002a8ebb688272831a54812b526f68fb713ec35eaff99938f528229d91433a60135487878460405180858152602001806020018381526020018281038252858582818152602001925080828437600081840152601f19601f8201169050808301925050509550505050505060405180910390a1505050505050565b601281815481106107fc57fe5b9060005260206000209060050201600091509050806000018054600181600116156101000203166002900480601f0160208091040260200160405190810160405280929190818152602001828054600181600116156101000203166002900480156108a85780601f1061087d576101008083540402835291602001916108a8565b820191906000526020600020905b81548152906001019060200180831161088b57829003601f168201915b505050505090806001018054600181600116156101000203166002900480601f0160208091040260200160405190810160405280929190818152602001828054600181600116156101000203166002900480156109465780601f1061091b57610100808354040283529160200191610946565b820191906000526020600020905b81548152906001019060200180831161092957829003601f168201915b5050505050908060020154908060030154908060040154905085565b60135481565b6001816010811061097557fe5b016000915054906101000a900473ffffffffffffffffffffffffffffffffffffffff1681565b60118054600181600116156101000203166002900480601f016020809104026020016040519081016040528092919081815260200182805460018160011615610100020316600290048015610a315780601f10610a0657610100808354040283529160200191610a31565b820191906000526020600020905b815481529060010190602001808311610a1457829003601f168201915b505050505081565b610a41610ba8565b610ab3576040517f08c379a00000000000000000000000000000000000000000000000000000000081526004018080602001828103825260208152602001807f4f776e61626c653a2063616c6c6572206973206e6f7420746865206f776e657281525060200191505060405180910390fd5b600073ffffffffffffffffffffffffffffffffffffffff166000809054906101000a900473ffffffffffffffffffffffffffffffffffffffff1673ffffffffffffffffffffffffffffffffffffffff167f8be0079c531659141344cd1fd0a4f28419497f9722a3daafe3b4186f6b6457e060405160405180910390a360008060006101000a81548173ffffffffffffffffffffffffffffffffffffffff021916908373ffffffffffffffffffffffffffffffffffffffff160217905550565b6000601280549050905090565b60008060009054906101000a900473ffffffffffffffffffffffffffffffffffffffff16905090565b60008060009054906101000a900473ffffffffffffffffffffffffffffffffffffffff1673ffffffffffffffffffffffffffffffffffffffff16610bea610da8565b73ffffffffffffffffffffffffffffffffffffffff1614905090565b610c0e610f74565b6001601080602002604051908101604052809291908260108015610c7d576020028201915b8160009054906101000a900473ffffffffffffffffffffffffffffffffffffffff1673ffffffffffffffffffffffffffffffffffffffff1681526020019060010190808311610c33575b5050505050905090565b6000808210158015610c9a5750600f8211155b610ca357600080fd5b60128281548110610cb057fe5b9060005260206000209060050201600401543414610ccd57600080fd5b3360018360108110610cdb57fe5b0160006101000a81548173ffffffffffffffffffffffffffffffffffffffff021916908373ffffffffffffffffffffffffffffffffffffffff160217905550819050919050565b610d2a610ba8565b610d9c576040517f08c379a00000000000000000000000000000000000000000000000000000000081526004018080602001828103825260208152602001807f4f776e61626c653a2063616c6c6572206973206e6f7420746865206f776e657281525060200191505060405180910390fd5b610da581610db0565b50565b600033905090565b600073ffffffffffffffffffffffffffffffffffffffff168173ffffffffffffffffffffffffffffffffffffffff161415610e36576040517f08c379a0000000000000000000000000000000000000000000000000000000008152600401808060200182810382526026815260200180610fbd6026913960400191505060405180910390fd5b8073ffffffffffffffffffffffffffffffffffffffff166000809054906101000a900473ffffffffffffffffffffffffffffffffffffffff1673ffffffffffffffffffffffffffffffffffffffff167f8be0079c531659141344cd1fd0a4f28419497f9722a3daafe3b4186f6b6457e060405160405180910390a3806000806101000a81548173ffffffffffffffffffffffffffffffffffffffff021916908373ffffffffffffffffffffffffffffffffffffffff16021790555050565b828054600181600116156101000203166002900490600052602060002090601f016020900481019282601f10610f3557805160ff1916838001178555610f63565b82800160010185558215610f63579182015b82811115610f62578251825591602001919060010190610f47565b5b509050610f709190610f97565b5090565b604051806102000160405280601090602082028038833980820191505090505090565b610fb991905b80821115610fb5576000816000905550600101610f9d565b5090565b9056fe4f776e61626c653a206e6577206f776e657220697320746865207a65726f2061646472657373a165627a7a72305820fd0f7c7a436463fbf41eb465f0c0de7e16a8a0be8ef8b919b736b335ef7521d40029",
  "source": "pragma solidity ^0.5.0;\r\n\r\nimport \"@openzeppelin/contracts/ownership/Ownable.sol\";\r\n\r\ncontract Inventory is Ownable {\r\n\r\n    address[16] public itemOwners;\r\n    string public staticUrl = 'https://i.imgur.com/';\r\n\r\n    struct ShopItem{\r\n        string name;\r\n        string picUrl;\r\n        uint id;\r\n        uint color;\r\n        uint price;\r\n    }\r\n\r\n    ShopItem[] public itemList;\r\n\r\n    uint public lastItemId = 0;\r\n    \r\n    event NewItem(\r\n        uint id,\r\n        string name, \r\n        uint price\r\n    );\r\n\r\n    constructor() public // create some sample products\r\n    {\r\n        itemList.push(ShopItem('Motorola test 1','HixHW9T.png',0,2,500 finney)) - 1;\r\n    }\r\n\r\n    function getItemCount() external view returns(uint){\r\n        return itemList.length;\r\n    }\r\n\r\n    function getItemOwners() public view returns (address[16] memory) {\r\n        return itemOwners;\r\n    }\r\n\r\n    function addNewItem(string calldata name, string calldata imgFile, uint color, uint price) external onlyOwner{\r\n        lastItemId = itemList.push(ShopItem(name,imgFile,lastItemId + 1,color,price)) - 1;\r\n        emit NewItem(lastItemId,name,price);\r\n    }\r\n\r\n    function buyItem(uint _id) external payable returns(uint){\r\n        require(_id >= 0 && _id <= 15);\r\n        require(msg.value == itemList[_id].price);\r\n        itemOwners[_id] = msg.sender;\r\n        return _id;\r\n    }\r\n\r\n}",
  "sourcePath": "C:/projects/Ethereum/webshop/contracts/Inventory.sol",
  "compiler": {
    "name": "solc",
    "version": "0.5.8+commit.23d335f2.Emscripten.clang"
  },
  "schemaVersion": "3.0.16",
  "updatedAt": "2019-11-26T06:40:11.374Z",
  "devdoc": {
    "methods": {
      "isOwner()": {
        "details": "Returns true if the caller is the current owner."
      },
      "owner()": {
        "details": "Returns the address of the current owner."
      },
      "renounceOwnership()": {
        "details": "Leaves the contract without owner. It will not be possible to call `onlyOwner` functions anymore. Can only be called by the current owner.     * NOTE: Renouncing ownership will leave the contract without an owner, thereby removing any functionality that is only available to the owner."
      },
      "transferOwnership(address)": {
        "details": "Transfers ownership of the contract to a new account (`newOwner`). Can only be called by the current owner."
      }
    }
  },
  "userdoc": {
    "methods": {}
  }
}